{
  "contractName": "Credit",
  "abi": [
    {
      "inputs": [],
      "payable": false,
      "stateMutability": "nonpayable",
      "type": "constructor",
      "signature": "constructor"
    },
    {
      "constant": false,
      "inputs": [
        {
          "name": "name",
          "type": "string"
        },
        {
          "name": "govID",
          "type": "string"
        }
      ],
      "name": "initUser",
      "outputs": [],
      "payable": false,
      "stateMutability": "nonpayable",
      "type": "function",
      "signature": "0xc0c2a80a"
    },
    {
      "constant": false,
      "inputs": [
        {
          "name": "name",
          "type": "string"
        },
        {
          "name": "_type",
          "type": "uint256"
        }
      ],
      "name": "initCorp",
      "outputs": [],
      "payable": false,
      "stateMutability": "nonpayable",
      "type": "function",
      "signature": "0x32fea302"
    },
    {
      "constant": true,
      "inputs": [
        {
          "name": "target",
          "type": "address"
        }
      ],
      "name": "checkScore",
      "outputs": [
        {
          "name": "",
          "type": "uint256"
        },
        {
          "name": "",
          "type": "string"
        },
        {
          "name": "",
          "type": "string"
        },
        {
          "name": "",
          "type": "bool"
        },
        {
          "name": "",
          "type": "string"
        }
      ],
      "payable": false,
      "stateMutability": "view",
      "type": "function",
      "signature": "0x3b552a38"
    },
    {
      "constant": true,
      "inputs": [],
      "name": "getType",
      "outputs": [
        {
          "name": "",
          "type": "uint256"
        }
      ],
      "payable": false,
      "stateMutability": "view",
      "type": "function",
      "signature": "0x15dae03e"
    },
    {
      "constant": false,
      "inputs": [
        {
          "name": "reason",
          "type": "uint256"
        },
        {
          "name": "target",
          "type": "address"
        }
      ],
      "name": "modScore",
      "outputs": [
        {
          "name": "",
          "type": "int256"
        },
        {
          "name": "",
          "type": "bool"
        },
        {
          "name": "",
          "type": "string"
        }
      ],
      "payable": false,
      "stateMutability": "nonpayable",
      "type": "function",
      "signature": "0x09a4c8b9"
    }
  ],
  "bytecode": "0x608060405234801561001057600080fd5b50610f05806100206000396000f3fe60806040526004361061006c5763ffffffff7c010000000000000000000000000000000000000000000000000000000060003504166309a4c8b9811461007157806315dae03e1461013457806332fea3021461015b5780633b552a3814610212578063c0c2a80a1461039b575b600080fd5b34801561007d57600080fd5b506100aa6004803603604081101561009457600080fd5b5080359060200135600160a060020a03166104d5565b604051808481526020018315151515815260200180602001828103825283818151815260200191508051906020019080838360005b838110156100f75781810151838201526020016100df565b50505050905090810190601f1680156101245780820380516001836020036101000a031916815260200191505b5094505050505060405180910390f35b34801561014057600080fd5b50610149610710565b60408051918252519081900360200190f35b34801561016757600080fd5b506102106004803603604081101561017e57600080fd5b81019060208101813564010000000081111561019957600080fd5b8201836020820111156101ab57600080fd5b803590602001918460018302840111640100000000831117156101cd57600080fd5b91908080601f01602080910402602001604051908101604052809392919081815260200183838082843760009201919091525092955050913592506107ac915050565b005b34801561021e57600080fd5b506102456004803603602081101561023557600080fd5b5035600160a060020a0316610894565b6040518086815260200180602001806020018515151515815260200180602001848103845288818151815260200191508051906020019080838360005b8381101561029a578181015183820152602001610282565b50505050905090810190601f1680156102c75780820380516001836020036101000a031916815260200191505b50848103835287518152875160209182019189019080838360005b838110156102fa5781810151838201526020016102e2565b50505050905090810190601f1680156103275780820380516001836020036101000a031916815260200191505b50848103825285518152855160209182019187019080838360005b8381101561035a578181015183820152602001610342565b50505050905090810190601f1680156103875780820380516001836020036101000a031916815260200191505b509850505050505050505060405180910390f35b3480156103a757600080fd5b50610210600480360360408110156103be57600080fd5b8101906020810181356401000000008111156103d957600080fd5b8201836020820111156103eb57600080fd5b8035906020019184600183028401116401000000008311171561040d57600080fd5b91908080601f016020809104026020016040519081016040528093929190818152602001838380828437600092019190915250929594936020810193503591505064010000000081111561046057600080fd5b82018360208201111561047257600080fd5b8035906020019184600183028401116401000000008311171561049457600080fd5b91908080601f016020809104026020016040519081016040528093929190818152602001838380828437600092019190915250929550610d66945050505050565b3360008181526001602081905260408220600201549192839260609261010090910460ff1615151461058e57604080517f08c379a000000000000000000000000000000000000000000000000000000000815260206004820152602660248201527f596f7572206163636f756e74207479706520686173206e6f20617574686f726960448201527f7a6174696f6e0000000000000000000000000000000000000000000000000000606482015290519081900360840190fd5b336000908152600160208181526040808420600160a060020a038a168552600490810183528185209390935590839052909120015460ff16151561060e5760408051808201909152601381527f55736572206e6f742052656769737465726564000000000000000000000000006020820152600094508493509150610708565b336000908152600160209081526040808320600160a060020a0389168452600401909152902054151561067d5760408051808201909152600e81527f4e6f7420417574686f72697a65640000000000000000000000000000000000006020820152600094508493509150610708565b8515156106c457600160a060020a03851660009081526020818152604080832060030180546009199081019091558151928301909152918152909450600193509150610708565b856001141561070857600160a060020a0385166000908152602081815260408083206003018054600a90810190915581519283019091529181529094506001935091505b509250925092565b60008033600090815260016020526040902060029081015460ff169081111561073557fe5b1415610743575060006107a9565b600133600090815260016020526040902060029081015460ff169081111561076757fe5b1415610775575060016107a9565b33600090815260016020526040902060029081015460ff168181111561079757fe5b14156107a5575060026107a9565b5060635b90565b6040805160a081018252338152602081018490529081018260028111156107cf57fe5b60028111156107da57fe5b8152600160208083018290526002604093840152336000908152828252929092208351815473ffffffffffffffffffffffffffffffffffffffff1916600160a060020a03909116178155838301518051919361083b93850192910190610e41565b5060408201518160020160006101000a81548160ff0219169083600281111561086057fe5b021790555060608201516002820180549115156101000261ff00199092169190911790556080909101516003909101555050565b600160a060020a03811660009081526020819052604081206004015460609081908390829060ff16151561094d57505060408051808201825260038082527f4e2f410000000000000000000000000000000000000000000000000000000000602080840182905284518086018652928352828101919091528351808501909452600e84527f4e6f742052656769737465726564000000000000000000000000000000000000908401526000955090935091508390610d5d565b33600090815260016020819052604090912060020154610100900460ff161515148061099057503360009081526020819052604090206004015460ff1615156001145b15156109fd57604080517f08c379a000000000000000000000000000000000000000000000000000000000815260206004820152601660248201527f596f7520617265206e6f74205265676973746572656400000000000000000000604482015290519081900360640190fd5b33600090815260016020819052604090912060020154610100900460ff1615151415610cba573360009081526001602081905260409091206003015490811415610b4857600160a060020a038716600090815260208181526040918290206003810154600191820180548551600282861615610100026000190190921691909104601f810186900486028201860190965285815291949093849190830182828015610ae95780601f10610abe57610100808354040283529160200191610ae9565b820191906000526020600020905b815481529060010190602001808311610acc57829003601f168201915b505050505091506040805190810160405280601081526020017f4e6f20417574686f72697a6174696f6e000000000000000000000000000000008152509060206040519081016040528060008152509550955095509550955050610d5d565b8060021415610cb457600160a060020a0387166000908152602081815260409182902060038101546001808301805486516002828516156101000260001901909216829004601f810188900488028201880190985287815293969195940193919291859190830182828015610bfe5780601f10610bd357610100808354040283529160200191610bfe565b820191906000526020600020905b815481529060010190602001808311610be157829003601f168201915b5050855460408051602060026001851615610100026000190190941693909304601f810184900484028201840190925281815295985087945092508401905082828015610c8c5780601f10610c6157610100808354040283529160200191610c8c565b820191906000526020600020905b815481529060010190602001808311610c6f57829003601f168201915b5050505050915060206040519081016040528060008152509550955095509550955050610d5d565b50610d5d565b3360009081526020819052604090206004015460ff16151560011415610d5d57600160a060020a038616600090815260208181526040918290206003810154600191820180548551600282861615610100026000190190921691909104601f810186900486028201860190965285815292949193909285929091849190830182828015610ae95780601f10610abe57610100808354040283529160200191610ae9565b91939590929450565b6040805160a081018252338082526020808301868152838501869052603260608501526001608085018190526000938452838352949092208351815473ffffffffffffffffffffffffffffffffffffffff1916600160a060020a039091161781559151805193949293610de0938501929190910190610e41565b5060408201518051610dfc916002840191602090910190610e41565b50606082015160038201556080909101516004909101805460ff1916911515919091179055505033600090815260208181526040808320600501909152902060029055565b828054600181600116156101000203166002900490600052602060002090601f016020900481019282601f10610e8257805160ff1916838001178555610eaf565b82800160010185558215610eaf579182015b82811115610eaf578251825591602001919060010190610e94565b50610ebb929150610ebf565b5090565b6107a991905b80821115610ebb5760008155600101610ec556fea165627a7a72305820377461b8bc0721e49736333d57012cce887bc9f71722f9f1b84437cff4dbb9d10029",
  "source": "pragma solidity >=0.5.0 <0.6.0;\n\ncontract Credit{\n\n\tstruct User{\n\t\taddress own;\n\t\tstring name;\n\t\tstring govID;\n\t\tuint score;\n\t\tbool exists;\n\t\tmapping (address => uint) viewCert;\n\t}\n\n\tstruct Corp{\n\t\taddress own;\n\t\tstring name;\n\t\tcorpType _type;\n\t\tbool exists;\n\t\tuint viewCert;\n\t\tmapping (address => uint) modCert;\n\t}\n\t\n\tmapping (address => User) private userPool;\n\tmapping (address => Corp) private corpPool;\n\tenum corpType {bank, gov, company}\n\n\n\t//event scoreCheck(int score, string memory name, string memory ID, bool sucess);\n\n\tmodifier onlyUser(address target){\n\t\trequire(userPool[target].exists == true);\n\t\t_;\n\t}\n\n\tmodifier onlyCorp(address sender){\n\t\trequire(corpPool[sender].exists == true, \"Your account type has no authorization\");\n\t\t_;\n\t}\n\n\tconstructor() public {\n\t\t// initUser(\"Lo\", \"a1\");\n\t\t// initCorp(\"Jack\", 1);\n\t}\n\n\tfunction initUser(string memory name, string memory govID) public{\n        userPool[msg.sender] = User({\n        own: msg.sender,\n\t    name: name,\n\t    govID: govID,\n\t    score: 50,\n\t    exists: true\n        });\n        userPool[msg.sender].viewCert[msg.sender] = 2;\n\t}\n\n\tfunction initCorp(string memory name, uint _type) public{\n\t\tcorpPool[msg.sender] = Corp({\n\t    own: msg.sender,\n\t    name: name,\n\t    _type: corpType(_type),\n\t    exists: true,\n\t    viewCert: 2\n\t    });\n\t}\n\n\tfunction checkScore(address target) public view returns(uint, string memory,string memory,bool,string memory){\n\t\tif (userPool[target].exists == false){\n\t\t\treturn (0,\"N/A\", \"N/A\", false, \"Not Registered\");\n\t\t}\n\t\trequire(corpPool[msg.sender].exists == true || userPool[msg.sender].exists == true, \"You are not Registered\");\n\t\tif (corpPool[msg.sender].exists == true){\n\t\t\tuint viewCert = corpPool[msg.sender].viewCert;\n\t\t\tif (viewCert==1){\n\t\t\t\treturn (userPool[target].score,userPool[target].name, \"No Authorization\", true,\"\");\n\t\t\t}else if (viewCert==2){\n\t\t\t\treturn (userPool[target].score,userPool[target].name, userPool[target].govID, true,\"\");\n\t\t\t}\n\t\t}else if (userPool[msg.sender].exists == true){\n\t\t\tuint viewCert = userPool[msg.sender].viewCert[target];\n\t\t\tviewCert = 1;\t\t//*******************Only for testing\n\t\t\tif (viewCert==1){\n\t\t\t\treturn (userPool[target].score,userPool[target].name, \"No Authorization\", true,\"\");\n\t\t\t}else if (viewCert==2){\n\t\t\t\treturn (userPool[target].score,userPool[target].name, userPool[target].govID, true,\"\");\n\t\t\t\t}else{\n\t\t\t\treturn (0,\"No Authorization\", \"No Authorization\", false,\"No Authorization\");\n\t\t\t}\n\n\t\t}\n\n\t}\n\n\tfunction getType() public view returns(uint){\n\t\tif (corpPool[msg.sender]._type == corpType.bank){\n\t\t\treturn 0;\n\t\t}else if (corpPool[msg.sender]._type == corpType.gov){\n\t\t\treturn 1;\n\t\t}else if (corpPool[msg.sender]._type == corpType.company){\n\t\t\treturn 2;\n\t\t}else{\n\t\t    return 99;\n\t\t}\n\t}\n\n\tfunction modScore(uint reason, address target) public onlyCorp(msg.sender) returns(int, bool, string memory){\n\t\tcorpPool[msg.sender].modCert[target] = 1;\t\t//*******************Only for testing\n\t\tif (userPool[target].exists == false){\n\t\t\treturn (0,false,\"User not Registered\");\n\t\t}else if (corpPool[msg.sender].modCert[target]==0){\n\t\t\treturn (0,false,\"Not Authorized\");\n\t\t}\n\t\tif (reason==0){\n\t\t\tuserPool[target].score -= 10;\n\t\t\treturn (-10,true,\"\");\n\t\t}else if (reason==1){\n\t\t\tuserPool[target].score += 10;\n\t\t\treturn (10,true,\"\");\n\t\t}\n\n\t}\n}\n",
  "sourcePath": "C:/Users/Jing Jiang/Documents/BitB/contracts/Credit.sol",
  "compiler": {
    "name": "solc",
    "version": "0.5.0+commit.1d4f565a.Emscripten.clang"
  },
  "schemaVersion": "3.0.2",
  "updatedAt": "2019-02-17T10:21:20.189Z",
  "devdoc": {
    "methods": {}
  },
  "userdoc": {
    "methods": {}
  }
}